{
  "address": "0xe7f1725E7734CE288F8367e1Bb143E90bb3F0512",
  "abi": [
    {
      "inputs": [
        {
          "internalType": "address",
          "name": "priceFeedAddress",
          "type": "address"
        }
      ],
      "stateMutability": "nonpayable",
      "type": "constructor"
    },
    {
      "inputs": [],
      "name": "FundMeNotOwner",
      "type": "error"
    },
    {
      "stateMutability": "payable",
      "type": "fallback"
    },
    {
      "inputs": [],
      "name": "MINIMUM_USD",
      "outputs": [
        {
          "internalType": "uint256",
          "name": "",
          "type": "uint256"
        }
      ],
      "stateMutability": "view",
      "type": "function"
    },
    {
      "inputs": [],
      "name": "cheaperWithdraw",
      "outputs": [],
      "stateMutability": "payable",
      "type": "function"
    },
    {
      "inputs": [],
      "name": "fund",
      "outputs": [],
      "stateMutability": "payable",
      "type": "function"
    },
    {
      "inputs": [
        {
          "internalType": "address",
          "name": "funder",
          "type": "address"
        }
      ],
      "name": "getAddressToAmountFunded",
      "outputs": [
        {
          "internalType": "uint256",
          "name": "",
          "type": "uint256"
        }
      ],
      "stateMutability": "view",
      "type": "function"
    },
    {
      "inputs": [
        {
          "internalType": "uint256",
          "name": "index",
          "type": "uint256"
        }
      ],
      "name": "getFunder",
      "outputs": [
        {
          "internalType": "address",
          "name": "",
          "type": "address"
        }
      ],
      "stateMutability": "view",
      "type": "function"
    },
    {
      "inputs": [],
      "name": "getFunders",
      "outputs": [
        {
          "internalType": "address[]",
          "name": "",
          "type": "address[]"
        }
      ],
      "stateMutability": "view",
      "type": "function"
    },
    {
      "inputs": [],
      "name": "getOnwer",
      "outputs": [
        {
          "internalType": "address",
          "name": "",
          "type": "address"
        }
      ],
      "stateMutability": "view",
      "type": "function"
    },
    {
      "inputs": [],
      "name": "getPriceFeed",
      "outputs": [
        {
          "internalType": "contract AggregatorV3Interface",
          "name": "",
          "type": "address"
        }
      ],
      "stateMutability": "view",
      "type": "function"
    },
    {
      "inputs": [],
      "name": "getVersion",
      "outputs": [
        {
          "internalType": "uint256",
          "name": "",
          "type": "uint256"
        }
      ],
      "stateMutability": "view",
      "type": "function"
    },
    {
      "inputs": [],
      "name": "withdraw",
      "outputs": [],
      "stateMutability": "payable",
      "type": "function"
    },
    {
      "stateMutability": "payable",
      "type": "receive"
    }
  ],
  "transactionHash": "0x058e9b4642b5cadbf6df57bc344f9b5f67e8211f401b7a504ff20be3b0394dae",
  "args": [
    "0x5FbDB2315678afecb367f032d93F642f64180aa3"
  ],
  "numDeployments": 1,
  "solcInputHash": "dee7ee29e857643c1531f30bad06e436",
  "bytecode": "0x60a06040523480156200001157600080fd5b506040516200159538038062001595833981810160405281019062000037919062000120565b3373ffffffffffffffffffffffffffffffffffffffff1660808173ffffffffffffffffffffffffffffffffffffffff1660601b8152505080600260006101000a81548173ffffffffffffffffffffffffffffffffffffffff021916908373ffffffffffffffffffffffffffffffffffffffff1602179055505062000152565b600080fd5b600073ffffffffffffffffffffffffffffffffffffffff82169050919050565b6000620000e882620000bb565b9050919050565b620000fa81620000db565b81146200010657600080fd5b50565b6000815190506200011a81620000ef565b92915050565b600060208284031215620001395762000138620000b6565b5b6000620001498482850162000109565b91505092915050565b60805160601c6114166200017f60003960008181610446015281816106bd01526106e301526114166000f3fe6080604052600436106100955760003560e01c8063b60d428811610059578063b60d428814610176578063b634b8e514610180578063be2693f0146101ab578063d7b4750c146101b5578063ea63a044146101f2576100a4565b80630343fb25146100ae5780630d8e6e2c146100eb5780633ccfd60b146101165780636b69a592146101205780639e87a5cd1461014b576100a4565b366100a4576100a261021d565b005b6100ac61021d565b005b3480156100ba57600080fd5b506100d560048036038101906100d09190610c41565b610355565b6040516100e29190610c87565b60405180910390f35b3480156100f757600080fd5b5061010061039d565b60405161010d9190610c87565b60405180910390f35b61011e610444565b005b34801561012c57600080fd5b50610135610684565b6040516101429190610c87565b60405180910390f35b34801561015757600080fd5b5061016061068f565b60405161016d9190610d01565b60405180910390f35b61017e61021d565b005b34801561018c57600080fd5b506101956106b9565b6040516101a29190610d2b565b60405180910390f35b6101b36106e1565b005b3480156101c157600080fd5b506101dc60048036038101906101d79190610d72565b610985565b6040516101e99190610d2b565b60405180910390f35b3480156101fe57600080fd5b506102076109cd565b6040516102149190610e5d565b60405180910390f35b66071afd498d000061025a600260009054906101000a900473ffffffffffffffffffffffffffffffffffffffff1634610a5b90919063ffffffff16565b101561029b576040517f08c379a000000000000000000000000000000000000000000000000000000000815260040161029290610edc565b60405180910390fd5b346000803373ffffffffffffffffffffffffffffffffffffffff1673ffffffffffffffffffffffffffffffffffffffff16815260200190815260200160002060008282546102e99190610f2b565b925050819055506001339080600181540180825580915050600190039060005260206000200160009091909190916101000a81548173ffffffffffffffffffffffffffffffffffffffff021916908373ffffffffffffffffffffffffffffffffffffffff160217905550565b60008060008373ffffffffffffffffffffffffffffffffffffffff1673ffffffffffffffffffffffffffffffffffffffff168152602001908152602001600020549050919050565b6000600260009054906101000a900473ffffffffffffffffffffffffffffffffffffffff1673ffffffffffffffffffffffffffffffffffffffff166354fd4d506040518163ffffffff1660e01b815260040160206040518083038186803b15801561040757600080fd5b505afa15801561041b573d6000803e3d6000fd5b505050506040513d601f19601f8201168201806040525081019061043f9190610f96565b905090565b7f000000000000000000000000000000000000000000000000000000000000000073ffffffffffffffffffffffffffffffffffffffff163373ffffffffffffffffffffffffffffffffffffffff16146104c9576040517f4ca30be000000000000000000000000000000000000000000000000000000000815260040160405180910390fd5b60005b600180549050811015610574576000600182815481106104ef576104ee610fc3565b5b9060005260206000200160009054906101000a900473ffffffffffffffffffffffffffffffffffffffff16905060008060008373ffffffffffffffffffffffffffffffffffffffff1673ffffffffffffffffffffffffffffffffffffffff1681526020019081526020016000208190555050808061056c90610ff2565b9150506104cc565b50600067ffffffffffffffff8111156105905761058f61103b565b5b6040519080825280602002602001820160405280156105be5781602001602082028036833780820191505090505b50600190805190602001906105d4929190610b37565b5060003373ffffffffffffffffffffffffffffffffffffffff16476040516105fb9061109b565b60006040518083038185875af1925050503d8060008114610638576040519150601f19603f3d011682016040523d82523d6000602084013e61063d565b606091505b5050905080610681576040517f08c379a0000000000000000000000000000000000000000000000000000000008152600401610678906110fc565b60405180910390fd5b50565b66071afd498d000081565b6000600260009054906101000a900473ffffffffffffffffffffffffffffffffffffffff16905090565b60007f0000000000000000000000000000000000000000000000000000000000000000905090565b7f000000000000000000000000000000000000000000000000000000000000000073ffffffffffffffffffffffffffffffffffffffff163373ffffffffffffffffffffffffffffffffffffffff1614610766576040517f4ca30be000000000000000000000000000000000000000000000000000000000815260040160405180910390fd5b600060018054806020026020016040519081016040528092919081815260200182805480156107ea57602002820191906000526020600020905b8160009054906101000a900473ffffffffffffffffffffffffffffffffffffffff1673ffffffffffffffffffffffffffffffffffffffff16815260200190600101908083116107a0575b5050505050905060005b815181101561087457600082828151811061081257610811610fc3565b5b6020026020010151905060008060008373ffffffffffffffffffffffffffffffffffffffff1673ffffffffffffffffffffffffffffffffffffffff1681526020019081526020016000208190555050808061086c90610ff2565b9150506107f4565b50600067ffffffffffffffff8111156108905761088f61103b565b5b6040519080825280602002602001820160405280156108be5781602001602082028036833780820191505090505b50600190805190602001906108d4929190610b37565b5060003373ffffffffffffffffffffffffffffffffffffffff16476040516108fb9061109b565b60006040518083038185875af1925050503d8060008114610938576040519150601f19603f3d011682016040523d82523d6000602084013e61093d565b606091505b5050905080610981576040517f08c379a0000000000000000000000000000000000000000000000000000000008152600401610978906110fc565b60405180910390fd5b5050565b60006001828154811061099b5761099a610fc3565b5b9060005260206000200160009054906101000a900473ffffffffffffffffffffffffffffffffffffffff169050919050565b60606001805480602002602001604051908101604052809291908181526020018280548015610a5157602002820191906000526020600020905b8160009054906101000a900473ffffffffffffffffffffffffffffffffffffffff1673ffffffffffffffffffffffffffffffffffffffff1681526020019060010190808311610a07575b5050505050905090565b600080610a6783610a97565b90506000670de0b6b3a76400008583610a80919061111c565b610a8a91906111a5565b9050809250505092915050565b6000808273ffffffffffffffffffffffffffffffffffffffff1663feaf968c6040518163ffffffff1660e01b815260040160a06040518083038186803b158015610ae057600080fd5b505afa158015610af4573d6000803e3d6000fd5b505050506040513d601f19601f82011682018060405250810190610b18919061124e565b5050509150506402540be40081610b2f91906112c9565b915050919050565b828054828255906000526020600020908101928215610bb0579160200282015b82811115610baf5782518260006101000a81548173ffffffffffffffffffffffffffffffffffffffff021916908373ffffffffffffffffffffffffffffffffffffffff16021790555091602001919060010190610b57565b5b509050610bbd9190610bc1565b5090565b5b80821115610bda576000816000905550600101610bc2565b5090565b600080fd5b600073ffffffffffffffffffffffffffffffffffffffff82169050919050565b6000610c0e82610be3565b9050919050565b610c1e81610c03565b8114610c2957600080fd5b50565b600081359050610c3b81610c15565b92915050565b600060208284031215610c5757610c56610bde565b5b6000610c6584828501610c2c565b91505092915050565b6000819050919050565b610c8181610c6e565b82525050565b6000602082019050610c9c6000830184610c78565b92915050565b6000819050919050565b6000610cc7610cc2610cbd84610be3565b610ca2565b610be3565b9050919050565b6000610cd982610cac565b9050919050565b6000610ceb82610cce565b9050919050565b610cfb81610ce0565b82525050565b6000602082019050610d166000830184610cf2565b92915050565b610d2581610c03565b82525050565b6000602082019050610d406000830184610d1c565b92915050565b610d4f81610c6e565b8114610d5a57600080fd5b50565b600081359050610d6c81610d46565b92915050565b600060208284031215610d8857610d87610bde565b5b6000610d9684828501610d5d565b91505092915050565b600081519050919050565b600082825260208201905092915050565b6000819050602082019050919050565b610dd481610c03565b82525050565b6000610de68383610dcb565b60208301905092915050565b6000602082019050919050565b6000610e0a82610d9f565b610e148185610daa565b9350610e1f83610dbb565b8060005b83811015610e50578151610e378882610dda565b9750610e4283610df2565b925050600181019050610e23565b5085935050505092915050565b60006020820190508181036000830152610e778184610dff565b905092915050565b600082825260208201905092915050565b7f596f75206e65656420746f207370656e64206d6f726520455448210000000000600082015250565b6000610ec6601b83610e7f565b9150610ed182610e90565b602082019050919050565b60006020820190508181036000830152610ef581610eb9565b9050919050565b7f4e487b7100000000000000000000000000000000000000000000000000000000600052601160045260246000fd5b6000610f3682610c6e565b9150610f4183610c6e565b9250827fffffffffffffffffffffffffffffffffffffffffffffffffffffffffffffffff03821115610f7657610f75610efc565b5b828201905092915050565b600081519050610f9081610d46565b92915050565b600060208284031215610fac57610fab610bde565b5b6000610fba84828501610f81565b91505092915050565b7f4e487b7100000000000000000000000000000000000000000000000000000000600052603260045260246000fd5b6000610ffd82610c6e565b91507fffffffffffffffffffffffffffffffffffffffffffffffffffffffffffffffff8214156110305761102f610efc565b5b600182019050919050565b7f4e487b7100000000000000000000000000000000000000000000000000000000600052604160045260246000fd5b600081905092915050565b50565b600061108560008361106a565b915061109082611075565b600082019050919050565b60006110a682611078565b9150819050919050565b7f43616c6c206661696c6564000000000000000000000000000000000000000000600082015250565b60006110e6600b83610e7f565b91506110f1826110b0565b602082019050919050565b60006020820190508181036000830152611115816110d9565b9050919050565b600061112782610c6e565b915061113283610c6e565b9250817fffffffffffffffffffffffffffffffffffffffffffffffffffffffffffffffff048311821515161561116b5761116a610efc565b5b828202905092915050565b7f4e487b7100000000000000000000000000000000000000000000000000000000600052601260045260246000fd5b60006111b082610c6e565b91506111bb83610c6e565b9250826111cb576111ca611176565b5b828204905092915050565b600069ffffffffffffffffffff82169050919050565b6111f5816111d6565b811461120057600080fd5b50565b600081519050611212816111ec565b92915050565b6000819050919050565b61122b81611218565b811461123657600080fd5b50565b60008151905061124881611222565b92915050565b600080600080600060a0868803121561126a57611269610bde565b5b600061127888828901611203565b955050602061128988828901611239565b945050604061129a88828901610f81565b93505060606112ab88828901610f81565b92505060806112bc88828901611203565b9150509295509295909350565b60006112d482611218565b91506112df83611218565b9250827f7fffffffffffffffffffffffffffffffffffffffffffffffffffffffffffffff048211600084136000841316161561131e5761131d610efc565b5b817f8000000000000000000000000000000000000000000000000000000000000000058312600084126000841316161561135b5761135a610efc565b5b827f8000000000000000000000000000000000000000000000000000000000000000058212600084136000841216161561139857611397610efc565b5b827f7fffffffffffffffffffffffffffffffffffffffffffffffffffffffffffffff05821260008412600084121616156113d5576113d4610efc565b5b82820290509291505056fea26469706673582212201fce169b57cdc9285f6cd78b0a49a9e4970861e7339e4c83bc486900987a219664736f6c63430008080033",
  "devdoc": {
    "kind": "dev",
    "methods": {},
    "version": 1
  },
  "userdoc": {
    "kind": "user",
    "methods": {},
    "version": 1
  },
  "storageLayout": {
    "storage": [
      {
        "astId": 58,
        "contract": "contracts/FundMe.sol:FundMe",
        "label": "s_addressToAmountFunded",
        "offset": 0,
        "slot": "0",
        "type": "t_mapping(t_address,t_uint256)"
      },
      {
        "astId": 61,
        "contract": "contracts/FundMe.sol:FundMe",
        "label": "s_funders",
        "offset": 0,
        "slot": "1",
        "type": "t_array(t_address)dyn_storage"
      },
      {
        "astId": 73,
        "contract": "contracts/FundMe.sol:FundMe",
        "label": "s_priceFeed",
        "offset": 0,
        "slot": "2",
        "type": "t_contract(AggregatorV3Interface)45"
      }
    ],
    "types": {
      "t_address": {
        "encoding": "inplace",
        "label": "address",
        "numberOfBytes": "20"
      },
      "t_array(t_address)dyn_storage": {
        "base": "t_address",
        "encoding": "dynamic_array",
        "label": "address[]",
        "numberOfBytes": "32"
      },
      "t_contract(AggregatorV3Interface)45": {
        "encoding": "inplace",
        "label": "contract AggregatorV3Interface",
        "numberOfBytes": "20"
      },
      "t_mapping(t_address,t_uint256)": {
        "encoding": "mapping",
        "key": "t_address",
        "label": "mapping(address => uint256)",
        "numberOfBytes": "32",
        "value": "t_uint256"
      },
      "t_uint256": {
        "encoding": "inplace",
        "label": "uint256",
        "numberOfBytes": "32"
      }
    }
  }
}